:020000041004E6
:10000000006000205D240410711E0410791E04108D
:1000100000000000000000000000000000000000E0
:10002000000000000000000000000000811E04101D
:1000300000000000000000008B1E0410951E04103C
:10004000C1240410C1240410C1240410C1240410CC
:10005000000000000000000000000000C1240410A7
:10006000C1240410C1240410C1240410C1240410AC
:10007000C1240410A51E041000000000C1240410B7
:10008000C1240410C1240410D91E04100000000073
:10009000CB1E04100000000000000000BD1E041074
:1000A000C1240410E71E0410C1240410C12404104C
:1000B0000000000000000000000000000000000040
:1000C00010B5904216D98AB2030C090C0C4659435C
:1000D00080B25343444350431B191A041B0C10189D
:1000E000594180225203002312184B41520DD8026D
:1000F000104310BD4843802252031218520D10467F
:1001000010BDC0468B0707D0013A22D30B780131CE
:10011000037001308B07F7D1830730D0DB4219D051
:100120000138043A08D308C943701B0A43801B0CEA
:1001300003710430043AF6D2D20707D30B88437018
:1001400001D08A78C2701B0A8370704701D00B7887
:1001500043707047043A06D308C903801B0C4380E0
:100160000430043AF8D2D20705D30B88038005D0B7
:100170008B788370704701D00B780370704770B430
:10018000103A03D378C978C0103AFBD2530701D391
:1001900018C918C001D508C908C0D20704D30B88F4
:1001A000038002300231002A01D50B78037070BC45
:1001B0007047C046EFF31482EFF30981154880F3CE
:1001C0001488BFF36F8FF0B543464C4655465E46E4
:1001D0006746F8B4104CEFF30883636006B4BFF3CE
:1001E0004F8F30BFC046C0460B4C646884F308880C
:1001F00082B003BCF8BC9846A146AA46B346BC46AA
:10020000F0BC04BC80F3098881F31488BFF36F8FBE
:100210001047C04600000000040000200023C25C1C
:100220000133002AFBD1581E7047000003B4714609
:10023000490840004900095E49008E4403BC7047EC
:10024000002243088B4274D303098B425FD3030A15
:100250008B4244D3030B8B4228D3030C8B420DD328
:10026000FF22090212BA030C8B4202D312120902B6
:1002700065D0030B8B4219D300E0090AC30B8B42F4
:1002800001D3CB03C01A5241830B8B4201D38B03A2
:10029000C01A5241430B8B4201D34B03C01A524147
:1002A000030B8B4201D30B03C01A5241C30A8B428A
:1002B00001D3CB02C01A5241830A8B4201D38B0275
:1002C000C01A5241430A8B4201D34B02C01A524119
:1002D000030A8B4201D30B02C01A5241CDD2C3098B
:1002E0008B4201D3CB01C01A524183098B4201D307
:1002F0008B01C01A524143098B4201D34B01C01AF2
:10030000524103098B4201D30B01C01A5241C30869
:100310008B4201D3CB00C01A524183088B4201D3D8
:100320008B00C01A524143088B4201D34B00C01AC4
:100330005241411A00D20146524110467047FFE730
:1003400001B5002000F0F0F802BDC0460029F7D04A
:1003500076E7704703460B437FD4002243088B4265
:1003600074D303098B425FD3030A8B4244D3030B3C
:100370008B4228D3030C8B420DD3FF22090212BA01
:10038000030C8B4202D31212090265D0030B8B427D
:1003900019D300E0090AC30B8B4201D3CB03C01A67
:1003A0005241830B8B4201D38B03C01A5241430B42
:1003B0008B4201D34B03C01A5241030B8B4201D332
:1003C0000B03C01A5241C30A8B4201D3CB02C01A9D
:1003D0005241830A8B4201D38B02C01A5241430A15
:1003E0008B4201D34B02C01A5241030A8B4201D304
:1003F0000B02C01A5241CDD2C3098B4201D3CB01AB
:10040000C01A524183098B4201D38B01C01A524159
:1004100043098B4201D34B01C01A524103098B425D
:1004200001D30B01C01A5241C3088B4201D3CB0048
:10043000C01A524183088B4201D38B00C01A52412B
:1004400043088B4201D34B00C01A5241411A00D2DB
:1004500001465241104670475DE0CA0F00D0494244
:10046000031000D34042534000229C4603098B42B4
:100470002DD3030A8B4212D3FC22890112BA030A3C
:100480008B420CD3890192118B4208D389019211BE
:100490008B4204D389013AD0921100E08909C30943
:1004A0008B4201D3CB01C01A524183098B4201D345
:1004B0008B01C01A524143098B4201D34B01C01A30
:1004C000524103098B4201D30B01C01A5241C308A8
:1004D0008B4201D3CB00C01A524183088B4201D317
:1004E0008B00C01A5241D9D243088B4201D34B0032
:1004F000C01A5241411A00D20146634652415B1074
:10050000104601D34042002B00D549427047634654
:100510005B1000D3404201B5002000F005F802BD99
:100520000029F8D016E770477047C0469140030095
:1005300090409C46203A9340194352426346D34030
:10054000194370471C2101231B04984201D3000C5E
:1005500010391B0A984201D3000A08391B09984236
:1005600001D30009043902A2105C40187047C0464C
:10057000040302020101010100000000000000006C
:10058000002B11D1002A0FD1002900D1002802D060
:100590000021C943080007B4024802A14018029094
:1005A00003BDC04685FFFFFF03B4684601B502984E
:1005B00000F034F8019B9E4602B00CBC7047C04668
:1005C000F0B5CE469946030C9C46130447461B0CD7
:1005D0001D000E0061460404240C80B50700100CB9
:1005E0004B436543414360432C0CC01824188C4690
:1005F000A34203D980235B029846C4444946794309
:100600005643230C2D042D0C8919634424046019CE
:10061000C918C0BCB946B046F0BDC046F0B5574693
:100620004E464546DE46E0B504000D00924699462A
:1006300083B08B4230D82DD04946504600F0BAF8EE
:1006400029000600200000F0B5F8331A9846203B38
:1006500034D49B4653465A46934042461F00534665
:1006600093401E00AF423BD8AF4200D179E05B46D9
:10067000A41BBD41002B00DA76E00022002300928B
:10068000019301235A46934001930123424693402C
:10069000009329E08242CFD90022002300920193E7
:1006A0000C9B002B01D01C605D600098019903B089
:1006B000F0BCBB46B246A946A046F0BD42469B46AA
:1006C00020239B1A5246DA40414613004A468A408C
:1006D000170042461F43534693401E00AF42C3D902
:1006E00000220023009201934346002BD8D0FB0741
:1006F00072081A4346467B080EE0AB4201D1A24283
:100700000CD8A41A9D41012024196D410021013EFD
:1007100024184D41002E06D0AB42EED9013E2419DB
:100720006D41002EF8D1009801995B46001969418E
:10073000002B24DB2B005A464446D3402A00E240DB
:100740001C005B461500002B2ADB26009E40330070
:1007500026004746BE403200801A99410090019120
:100760009EE7A342BCD882E74246202300219B1A81
:100770000022009101920122DA40019285E742466F
:1007800020239B1A2A0046469A402300F340444601
:1007900013432A00E2401C005B461500002BD4DA0C
:1007A00042462F002023260097409B1ADE403B0044
:1007B0003343CDE710B5002903D1FFF7C3FE203046
:1007C00002E00800FFF7BEFE10BDC04680B582B053
:1007D00000AF786000200DF0C3FE09F031FA031E6F
:1007E00001D000F065FD08F0CBFD08F06DFF0BF0C7
:1007F0003FFC00200DF0BEFE00231800BD4602B0F5
:1008000080BD80B500AF0BF012FC0BF009FC0BF0C3
:1008100015FC0BF01AFCC046BD4680BD80B582B009
:1008200000AF78607B681B691800BD4602B080BDD0
:1008300080B584B000AF7860074B196D064B7A68BD
:100840000A431A65044B1B6D7A681340FB60FB6812
:10085000C046BD4604B080BD0000404880B584B0AD
:1008600000AF7860074B196E064B7A680A431A6628
:10087000044B1B6E7A681340FB60FB68C046BD46A4
:1008800004B080BD0000404880B582B000AF786001
:10089000064B1B6E7A6813407A689A4201D1012395
:1008A00000E000231800BD4602B080BD00004048B3
:1008B00080B582B000AF7860044B196C034B7A6846
:1008C0000A431A64C046BD4602B080BD00004048DD
:1008D00080B582B000AF7860054B1A6C7B68D94355
:1008E000034B0A401A64C046BD4602B080BDC046F4
:1008F0000000404880B586B002AF78603960796802
:100900000A4A0B483B6800930B00802120F0DCFC76
:100910000300FB60FB689AB20549064B180001F022
:1009200048FDC046BD4604B080BDC0460C27061039
:100930005004002040030020F0B5A3B002AF01F046
:10094000C0FD00F00FFA00F04BFA00F021FC00F0BF
:1009500065FA00F009FB00F045FB00F0CBFB00F06E
:10096000B1FA00F0CDFA00F099FAD94AD94B11004A
:10097000180001F0E5FC642001F028FED64AD54BB2
:100980001100180001F049FDD44BD54A1A60D34B31
:10099000D44A5A60D14B04221A81D04BFA229200D9
:1009A000DA60D14B02221A70CF4B02225A70CE4B22
:1009B00000229A70CC4B0122DA70CB4B01221A71C3
:1009C000C94B01225A71C84B01229A71C64B0222AF
:1009D000DA71C64ABF4B1100180001F01EFD7F25D9
:1009E0007C19C14ABD4B1100180000F05DFD0300E9
:1009F00023707B191B78002B07D0BD4AB54B110023
:100A0000180001F00AFD00F053FCBA4AB14B110086
:100A1000180001F002FDB84AAE4B1100180001F0B9
:100A2000FCFC7E203B1802221A707D217B180122DB
:100A30001A707F257C197B1819783B181A78A748FB
:100A40000B00012100F026FF030023707B191B78A7
:100A5000002B05D0A94A9F4B1100180001F0DDFCC6
:100A6000A74A9C4B1100180001F0D7FC7F257C1988
:100A70009A4B0121180000F05DFF030023707B19E1
:100A80001B78002B05D09F4A924B1100180001F0F3
:100A9000C4FC9D4A914B1100180000F0D1FE7F2547
:100AA0007C198E4B180000F021FE030023707B1987
:100AB0001B78002B07D0954A864B1100180001F0D7
:100AC000ACFC00F0F5FB924A824B1100180001F0DB
:100AD000A4FC904A7F4B1100180001F09EFC8E4A46
:100AE0007C4B1100180001F098FC8C4A794B1100E6
:100AF000180001F092FC0020FFF768FE01200BF0C7
:100B00005DFC874A734B1100180001F086FC7F25BD
:100B10007C196C23FA18714B1100180000F0F5FDD8
:100B2000030023707B191B78002B00D0CAE0FA6EFB
:100B300080231B04134035D07C197026BA19674BEB
:100B40001100180000F0F2FD030023707B191B78E0
:100B5000002B27D1BB191B79072B23D89A00714B87
:100B6000D3181B689F467023FB181B681A006E4B36
:100B700011001800FFF7BEFE6C4B1B685A1C6B4B34
:100B80001A600FE06A4A534B1100180001F045FC4F
:100B9000524B180000F045FE664B1B685A1C654B13
:100BA0001A60C046FA6E8023DB00134024D07F25F4
:100BB0007C196823FA18494B1100180000F0F6FD63
:100BC000030023707B191B78002B15D1BB6E002B03
:100BD00012D0BB6E19005848FFF732FB0300BB6709
:100BE000BB6F1D2B08DDBB6FC82B05DCBA6F534BE9
:100BF00011001800FFF77EFEFA6E80235B0313409E
:100C00002DD04F4B01211800FFF774FEFB6E082218
:100C1000134005D04B4A2F4B1100180001F0FDFB8B
:100C2000FB6E0422134005D0474A2A4B11001800DE
:100C300001F0F3FBFB6E0222134005D0434A254B23
:100C40001100180001F0E9FBFB6E012213401AD0DD
:100C50003F4A204B1100180001F0DFFB13E001F0C8
:100C6000A1FC02003B4B1B68D21AFA239B009A425C
:100C700009D9334B00211800FFF73CFE01F092FC2C
:100C80000200344B1A6001F08DFC0200324B1B68ED
:100C9000D31A324A934215D9244B1968254B1B6845
:100CA0002F4A381D00930B00642120F00DFB3A1DE4
:100CB000084B1100180001F0B0FB01F073FC0200BA
:100CC000254B1A60052001F081FCFFF79AFD1EE715
:100CD000940200204003002018270610280300205B
:100CE000F401002000001048380300203C270610C3
:100CF00058270610782706109C270610C0270610D4
:100D0000E427061004280610000490002C28061082
:100D10005028061058280610682806107828061053
:100D200090280610EC290610E0280610D0040020B8
:100D3000E4280610D40400204C1D000004290610ED
:100D4000102906101C2906103429061048290610FF
:100D500060290610D8040020DC040020881300005D
:100D60007429061090B589B000AF08243B1918000B
:100D700018231A00002120F00FFC3B001800082364
:100D80001A00002120F008FC3B1909221A603B19C7
:100D9000802252025A603B1940225A613B191800C6
:100DA00004F044FE031E01D000F082FA3B00002252
:100DB0001A603B0000225A603B001021180004F02A
:100DC00085FF031E01D000F073FA80235B0500222B
:100DD0001900002005F026F8C046BD4609B090BDB8
:100DE00080B586B000AF3B00180018231A00002120
:100DF00020F0D2FB3B0002221A603B00802252010D
:100E00005A613B00180005F03DF9031E01D000F0C7
:100E10004FFAC046BD4606B080BD000080B500AFA9
:100E20001C4B8222D2051A601A4B1B4A5A60194B7E
:100E300000229A60174B0122DA60164B00221A61D9
:100E4000144B00225A61134B00229A61114B00226D
:100E5000DA61104B00221A620E4B180001F0D4FF29
:100E6000031E01D000F024FA0A4B0021180002F002
:100E700071F8031E01D000F01BFA064B0021180088
:100E800002F0B4F8031E01D000F012FAC046BD46CD
:100E900080BDC046940100205B3D300080B500AFAE
:100EA000064B074A1A60054B180002F0EBF8031EC8
:100EB00001D000F0FDF9C046BD4680BDE80100202C
:100EC0000000304880B582B000AF00237B60012075
:100ED000FFF7DAFC031E08D10120FFF7E9FC01202F
:100EE000FFF7F6FC0120FFF7B9FCC023DB057B60B0
:100EF0003B1D180002F0DCFBC046BD4602B080BDC1
:100F000080B582B000AF3B00180008231A00002112
:100F100020F042FB0120FFF7B7FC031E08D101209F
:100F2000FFF7C6FC0120FFF7D3FC0120FFF796FC7A
:100F3000C0460C4B1800FFF771FC03000F2BF8D9CB
:100F40003B00A02252001A803B0000229A703B0016
:100F500000225A603B00180003F0D0F8C046BD469E
:100F600002B080BD0018006080B500AF1B4B1C4A6A
:100F70001A601A4B822252005A60184B00229A6063
:100F8000164BE022D200DA60144B00221A61134B98
:100F900000225A61114B802292009A610F4B20224D
:100FA000DA610E4B00221A620C4B00225A620B4B84
:100FB00000229A62094B0722DA62084B00221A6368
:100FC000064B08225A63054B180005F033F9031E3F
:100FD00001D000F06DF9C046BD4680BDF40100208F
:100FE0000070004180B590B000AF2423FB181800BA
:100FF0001C231A00002120F0CFFA3B1D18002023EB
:101000001A00002120F0C8FA374B384A1A60364BD4
:1010100000225A60344B00229A60334B344ADA6023
:10102000314B00221A61304B00225A612E4B0022B4
:101030009A612D4B180005F001FD031E01D000F050
:1010400037F9294B180005F03DFD031E01D000F0D3
:101050002FF924217B1860221A607B1800225A6025
:101060007B1800229A607B180022DA607B1800222D
:101070001A617B1800225A617B1800229A61791844
:10108000194B0022180005F069FD031E01D000F085
:101090000FF93B1D00221A603B1D00225A603B1DC8
:1010A00000229A603B1D0022DA603B1D00221A617B
:1010B0003B1D802292015A613B1D00229A613B1D1B
:1010C0000022DA613A1D084B1100180005F0A8FF54
:1010D000031E01D000F0ECF8034B180000F02EFEC8
:1010E000C046BD4610B080BD5802002000600040E0
:1010F000FFFF000080B500AF234B244A1A60224B4B
:10110000E12252025A60204B00229A601E4B0022BC
:10111000DA601D4B00221A611B4B0C225A611A4BDC
:1011200000229A61184B0022DA61174B00221A62E2
:10113000154B00225A62144B00229A62124B18007F
:1011400005F0D4FF031E01D000F0B2F80E4B0021D1
:10115000180007F049FB031E01D000F0A9F80A4B64
:101160000021180007F080FB031E01D000F0A0F85A
:10117000054B180007F0FEFA031E01D000F098F8A6
:10118000C046BD4680BDC0469402002000400041DC
:1011900080B586B000AF3B1D180014231A00002153
:1011A00020F0FAF90820FFF743FB0420FFF740FB8B
:1011B0003D4B00221421180001F009FE3B1D1422B2
:1011C0001A603B1D01225A603B1D00229A603B1DA4
:1011D0000022DA603B1D344A1900100001F052FC75
:1011E0003B1D04221A603B1D02225A603B1D012256
:1011F0009A603B1D0022DA603B1D07221A613A1DEE
:101200009023DB051100180001F03CFC3B1DC022BF
:10121000D2001A603B1D8222D2035A603B1D00227D
:101220009A603A1D9023DB051100180001F02AFC9A
:101230003B1D902212021A603B1D8222D2035A608B
:101240003B1D00229A603B1D174A1900100001F057
:1012500019FC3B1D8022D2011A603B1D02225A60FC
:101260003B1D00229A603B1D0022DA603B1D0322D9
:101270001A613B1D0C4A1900100001F003FC0B4BD6
:101280001900012002F012F8084B1900012002F0A9
:101290003BF80421002001F0CFFF0DF075F9C046A6
:1012A000BD4606B080BDC046000010481440000096
:1012B00080B500AF72B6C046C046FDE780B582B0CB
:1012C00000AF78607B6858687B681B890022190032
:1012D00001F07DFDC046BD4602B080BD80B582B044
:1012E00000AF78607B6858687B681B890122190011
:1012F00001F06DFDC046BD4602B080BDF0B589B0BD
:1013000002AFF860B9607A601A00BB1C1A80FB68F3
:101310001868FB68DB681726BC19BA1C15887A6840
:10132000B96800932B0005F03DF803002370BB194A
:101330001B78002B01D1002307E01723FB181B7833
:10134000032B01D1022300E001231800BD4607B0A2
:10135000F0BD80B582B000AF78607B68180001F006
:1013600035F9C046BD4602B080BDF0B589B000AFCA
:10137000F8607A600B203B180A1C1A7018217B1841
:1013800000221A6014257B1900221A603B181B7872
:101390005BB2DB185BB2012213435BB2DAB20E0020
:1013A0007B181A70FB681800FFF788FF1F23FC18D2
:1013B0007A19B919F8680423FFF7A0FF0300237016
:1013C000FB681800FFF78AFF1F23FB181B78002B10
:1013D0000BD17B195B781A047B199B781B02134392
:1013E0007A19D2781A437B681A601F23FB181B787E
:1013F0001800BD4609B0F0BDF0B589B000AFF86087
:101400007A600B203B180A1C1A701426BB190022A4
:101410001A603B181B78DB18DAB218257B191A7092
:101420007B681B0CDAB27B195A707B681B0ADAB234
:101430007B199A707B68DAB27B19DA70FB68180046
:10144000FFF73CFF1F23FC18BA197919F868042329
:10145000FFF754FF03002370FB681800FFF73EFFFF
:101460001F23FB181B781800BD4609B0F0BDB0B5AE
:1014700084B000AF78600F257C197B6800220821BA
:101480001800FFF7B9FF030023707B191B78002BAE
:1014900002D10A20FFF75DFF0F23FB181B7818000D
:1014A000BD4604B0B0BD0000B0B584B000AF7860F8
:1014B00039607B68DB68002B03D17B68FA229200DD
:1014C000DA600F257C197B681800FFF7D0FF030056
:1014D00023707B191B78002B02D07B191B78FDE051
:1014E0003220FFF736FF0F257C190823FA187B6896
:1014F0000F211800FFF739FF030023707B191B78B9
:10150000002B02D07B191B78E8E00023BB603B680E
:101510009B781A05C0239B031A40BB681343BB602A
:101520003B68DB78002B02D080231B0300E0002304
:10153000BA681343BB603B685B79002B02D0802301
:101540005B0100E00023BA681343BB603B689B79F2
:10155000002B01D0102300E00023BA681343BB60C6
:101560003B68DB799B000C221A40BB681343BB60CD
:10157000BB6803221343BB60BA680F257C197B68E4
:1015800010211800FFF738FF030023707B191B7828
:10159000002B02D07B191B78A0E00023BB603B68C6
:1015A0005B789A05C0231B041A40BB681343BB60D9
:1015B0003B681B781A04C0239B021A40BB68134384
:1015C000BB60BB688022D2011343BB60BB68802232
:1015D00052011343BB60BA680F257C197B68152143
:1015E0001800FFF709FF030023707B191B78002BFD
:1015F00002D07B191B7871E00023BB60BA680F250D
:101600007C197B6814211800FFF7F6FE0300237095
:101610007B191B78002B02D07B191B785EE03B689E
:101620001B79002B25D02F4BBB60BA680F257C1986
:101630007B681D211800FFF7DFFE030023707B1974
:101640001B78002B02D07B191B7847E0264BBB6030
:10165000BA680F257C197B681E211800FFF7CCFEA5
:10166000030023707B191B78002B02D07B191B7899
:1016700034E00023BB60BB68F022D2031343BB609D
:10168000BB6810221343BB60BB6804221343BB60DA
:10169000BA680F257C197B6804211800FFF7ACFE9F
:1016A000030023707B191B78002B02D07B191B7859
:1016B00014E0FC239B03BB60BA680F257C197B6890
:1016C00005211800FFF798FE030023707B191B7893
:1016D000002B02D07B191B7800E000231800BD46C8
:1016E00004B0B0BD00A3BF000024200080B582B0CC
:1016F00000AF78607B68002209211800FFF77CFEAC
:1017000003001800BD4602B080BD80B582B000AFB6
:10171000786039603A687B6801211800FFF725FE80
:1017200003001800BD4602B080BD0000B0B584B013
:1017300000AF786039600F257C190823FA187B68A0
:1017400021211800FFF711FE030023707B191B787D
:10175000002B02D07B191B7821E0BB689B099B03FF
:101760009A0B3B681A603B681A6880239B021340FF
:1017700005D03B681B680C4A1A433B681A60BB687B
:10178000DB08DBB207221340DAB23B681A71BB6890
:10179000DBB207221340DAB23B685A71002318000B
:1017A000BD4604B0B0BDC0460000FCFFB0B586B079
:1017B00000AF7860396017257C191023FA187B6810
:1017C00001211800FFF7D1FD030023707B191B785E
:1017D000002B02D07B191B781FE03A698023DB00C5
:1017E000134001D1012318E017257C190C23FA18A6
:1017F0007B6825211800FFF7B8FD030023707B19D3
:101800001B78002B02D07B191B7806E0FB689B0A33
:101810009B049A0C3B681A6000231800BD4606B072
:10182000B0BD80B582B000AF78607B6800220A212D
:101830001800FFF7E1FD03001800BD4602B080BDAF
:10184000B0B584B000AF786039600F257C190823EB
:10185000FA187B6802211800FFF787FD0300237048
:101860007B191B78002B02D07B191B780EE0BA681D
:101870003B681343BB60BB6803221343BB60BA6879
:101880007B6802211800FFF7B7FD03001800BD4672
:1018900004B0B0BDB0B584B000AF78600C001000EB
:1018A0001900FB1C221C1A70BB1C021C1A707B1C2A
:1018B0000A1C1A700F257C190823FA187B6810215E
:1018C0001800FFF752FD030023707B191B78002BD3
:1018D00002D07B191B7826E0BB68154A1340BB6019
:1018E000FB1C1B78002B17D0BB68802252011343CE
:1018F000BB60BB68BB60BB1C1B781A02E023DB002B
:101900001A40BB681343BB607B1C1B789B01FF2202
:101910001A40BB681343BB60BA687B68102118008B
:10192000FFF76AFD03001800BD4604B0B0BDC04615
:101930003FC0FFFFB0B584B000AF78600A00FB1C69
:101940001A700F257C190823FA187B6805211800E6
:10195000FFF70BFD030023707B191B78002B02D0CF
:101960007B191B7813E0BB680B4A1340BB60FB1C60
:101970001B78002B04D0BB68802212041343BB6089
:10198000BA687B6805211800FFF736FD03001800D0
:10199000BD4604B0B0BDC046FFFF3FFF80B584B078
:1019A00000AF7860074B196D064B7A680A431A65D9
:1019B000044B1B6D7A681340FB60FB68C046BD4654
:1019C00004B080BD0000404880B584B000AF7860AE
:1019D000074B596D064B7A680A435A65044B5B6D99
:1019E0007A681340FB60FB68C046BD4604B080BD0A
:1019F0000000404880B584B000AF7860074B996D17
:101A0000064B7A680A439A65044B9B6D7A681340CB
:101A1000FB60FB68C046BD4604B080BD0000404886
:101A200080B584B000AF7860074B196E064B7A68BA
:101A30000A431A66044B1B6E7A681340FB60FB680E
:101A4000C046BD4604B080BD0000404880B582B0AD
:101A500000AF7860064B1B6E7A6813407A689A4232
:101A600001D1012300E000231800BD4602B080BD73
:101A70000000404880B582B000AF7860044B196C1C
:101A8000034B7A680A431A64C046BD4602B080BD63
:101A90000000404880B582B000AF7860054B1A6CFA
:101AA0007B68D943034B0A401A64C046BD4602B066
:101AB00080BDC0460000404880B500AF80235B0079
:101AC0001800FFF781FFC046BD4680BD90B589B0C4
:101AD00000AF78600C243B19180014231A00002171
:101AE0001FF05AFD7B681A688223DB059A4246D1B3
:101AF0000420FFF753FF0820FFF750FF3B19012296
:101B00001A603B1912225A603B1900229A603B1955
:101B10000022DA603B1900221A613A199023DB0592
:101B20001100180000F0AEFF21007B1880221A601F
:101B30007B1812225A607B1800229A607B180022C0
:101B4000DA607B1800221A617B180F4A1900100016
:101B500000F098FF0121002001F0A8FB8021012066
:101B600001F0A4FB0121002001F0CEFB8021012027
:101B700001F0CAFB80239B031800FFF73BFFC04620
:101B8000BD4609B090BDC0460000104880B582B087
:101B900000AF78607B681B68094A93420CD18023B0
:101BA0005B021800FFF7FAFE002201210D2000F071
:101BB000DDFD0D2000F0EFFDC046BD4602B080BD4A
:101BC0000000304890B589B000AF786008243B1918
:101BD000180018231A0000211FF0DEFC7B681A6829
:101BE000C023DB059A422DD13B1901221A603B1913
:101BF00004221A613B19180004F044FA031E01D0B4
:101C0000FFF756FB0120FFF721FF031E08D101203B
:101C1000FFF730FF0120FFF73DFF0120FFF700FF36
:101C20000CF0B2FC00220021122000F09FFD1220D7
:101C300000F0B1FD00220021192000F097FD1920CD
:101C400000F0A9FDC046BD4609B090BD90B589B071
:101C500000AF78600C243B19180014231A000021EF
:101C60001FF09AFC7B681B68294A93424BD1802362
:101C7000DB011800FFF7BEFE0820FFF78FFE0420EF
:101C8000FFF78CFE3B1908221A603B1902225A60AA
:101C90003B1900229A603B190022DA603B190422AA
:101CA0001A613B191B4A1900100000F0EBFE2100DD
:101CB0007B18902212011A607B1802225A607B184E
:101CC00000229A607B180022DA607B1803221A61D6
:101CD0007A189023DB051100180000F0D3FE0821CC
:101CE000012001F0E3FA90231B011900002001F00C
:101CF000DDFA0821012001F007FB90231B011900E8
:101D0000002001F001FBC046BD4609B090BDC046B1
:101D1000007000410000104880B582B000AF7860CC
:101D20007B681B68044A934202D10420FFF74CFEF3
:101D3000C046BD4602B080BD0060004090B589B08D
:101D400000AF78600C243B19180014231A000021FE
:101D50001FF022FC7B681B68134A934220D10820A5
:101D6000FFF71CFE21007B1840221A607B1802221C
:101D70005A607B1800229A607B180022DA607B1878
:101D800002221A617B18094A1900100000F07AFE3D
:101D90004021012001F08AFA4021012001F0B4FA2B
:101DA000C046BD4609B090BD00600040000010482C
:101DB00090B589B000AF78600C243B19180014234B
:101DC0001A0000211FF0E8FB7B681B68264A93423B
:101DD00046D18023DB001800FFF70CFE0820FFF738
:101DE000DDFD0420FFF7DAFD3B1901221A603B19E3
:101DF00002225A603B1900229A603B190022DA60E5
:101E00003B1900221A613B19184A1900100000F012
:101E100039FE21007B1802221A607B1802225A60C8
:101E20007B1800229A607B180022DA607B1802225D
:101E30001A617A189023DB051100180000F022FEC9
:101E40000121012001F032FA0221002001F02EFAD6
:101E50000121012001F058FA0221002001F054FA7A
:101E6000C046BD4609B090BD00400041000010488A
:101E700080B500AFC046FDE780B500AFC046FDE7C6
:101E800080B500AFC046BD4680BD80B500AFC0463E
:101E9000BD4680BD80B500AF00F072FBC046BD46B8
:101EA00080BD000080B500AF034B180001F046F97B
:101EB000C046BD4680BDC046E801002080B500AFE9
:101EC00003F093FBC046BD4680BD80B500AF03F074
:101ED00095FBC046BD4680BD80B500AF01F080FFD8
:101EE000C046BD4680BD80B500AF01F09AFFC04638
:101EF000BD4680BD80B586B000AFF860B9607A603D
:101F000000237B610AE000E000BF0100BB685A1CAF
:101F1000BA60CAB21A707B6901337B617A697B68E7
:101F20009A42F0DB7B681800BD4606B080BD80B5E4
:101F300086B000AFF860B9607A6000237B6109E089
:101F4000BB685A1CBA601B78180000E000BF7B69B0
:101F500001337B617A697B689A42F1DB7B68180008
:101F6000BD4606B080BD80B582B000AF7860012369
:101F70005B421800BD4602B080BD80B582B000AFA4
:101F8000786039603B68802292015A600023180013
:101F9000BD4602B080BD80B582B000AF786001233D
:101FA0001800BD4602B080BD80B584B000AFF860B7
:101FB000B9607A6000231800BD4604B080BD0000FF
:101FC00080B586B000AF7860144A154BD31A7B6198
:101FD0007B693B61134B1B68002B02D1114B124AEA
:101FE0001A60104B1A687B68D3183A699A4207D274
:101FF0001FF0DAFA03000C221A6001235B4209E0A9
:10200000084B1B68FB60074B1A687B68D218054BAE
:102010001A60FB681800BD4606B080BD0060002055
:10202000000C0000E0040020D02D002090B583B00B
:1020300000AF02003960FB1D1A70FB1D1B787F2B5F
:1020400028D82F4AFB1D1B785BB29B08C0339B002E
:102050009B58FA1D1278110003220A40D200FF217A
:1020600091400A00D2431A4011003B689B01FF22B5
:102070001A40FB1D1B78180003230340DB009A4025
:102080001F48FB1D1B785BB29B080A43C0339B00B3
:102090001A5031E01B4AFB1D1B7819000F230B401F
:1020A000083B9B0806339B00D31804331B68FA1DBA
:1020B0001278110003220A40D200FF2191400A0049
:1020C000D2431A4011003B689B01FF221A40FB1DBE
:1020D0001B78180003230340DB009A400948FB1DCE
:1020E0001B781C000F232340083B9B080A43063340
:1020F0009B00C31804331A60C046BD4603B090BDB0
:1021000000E100E000ED00E080B500AFBFF34F8FCD
:10211000C046044B044ADA60BFF34F8FC046C04646
:10212000FDE7C04600ED00E00400FA0590B587B079
:1021300000AF5E4A9423D358002B0ED15C4B1B6931
:10214000002B03D15A4B9B6B002B06D0594B01221D
:102150009A60FEF749F8FFF7D7FF574B574A9A6046
:10216000554B9A68534B1A61514B5A68504B20217A
:102170000A435A604E4B5A684D4B51490A405A60C7
:10218000C0464B4B5B6904221340042BF9D1484BEA
:10219000DB69302293431A00454B20210A43DA6160
:1021A000434BDA69424B47490A40DA61404BDA69EE
:1021B0003F4B802149000A43DA61434B1B68434A85
:1021C000934255D01F233B610823FB600A23BB6069
:1021D00003237B60354BDB681E2293431900FB68A9
:1021E0005A00324B0A43DA60304BDA682F4B012138
:1021F0000A43DA602D4BDB68354A134019003B690E
:102200001A062A4B0A43DA60284BDA68274B8021EA
:1022100009040A43DA60264A9423D3582D4A1A4007
:10222000BB689901F0239B000B4021491343942282
:102230008B501F4A9423D3581D49202213439422C4
:102240008B501B4A9423D358234A1A407B68D902E7
:10225000E0239B010B401649134394228B50144AF0
:102260009423D35812498022D200134394228B50D6
:102270001723FB1800221A700DE017243B191B7856
:102280005BB203211800FFF7D1FE21007B181A78FA
:102290007B1801321A701723FB181B781F2BECD9FF
:1022A00062B6C046C046BD4607B090BD000040487B
:1022B000000050480400002000ED00E00000041081
:1022C000FFFEFFFFFFFBFFFFF81E0010CCECBCFC85
:1022D000FFFFFFC03FFCFFFFFFC7FFFF80B582B0DD
:1022E00000AF134B9B685B08DAB2FB1D01210A406B
:1022F0001A700F4B9B681B0ADAB2BB1D07210A40FC
:102300001A70FB1D1B78002B07D0BB1D1B78013BEF
:10231000084ADA40084B1A6005E0BB1D1B78074AE3
:10232000DA40054B1A60C046BD4602B080BDC046CB
:10233000000040480048E801A00900200090D003B8
:1023400080B582B000AF786039607B68002B02D026
:102350003B68002B01D1012327E07B683A681A60B3
:102360007A6882235B000021D1507A680A23FF3308
:102370000021D1547A6886235B000021D1507B680C
:10238000043380225200002118001FF005F97B68F9
:1023900018687B680933FF330122190004F0A0FF9D
:1023A000031E01D1002300E001231800BD4602B046
:1023B00080BDB0B586B000AFF860B960BB1D1A80B3
:1023C000FB68002B06D0BB68002B03D0BB1D1B880D
:1023D000002B01D101231CE0FB68186817257C192C
:1023E000BB1D1A88B968642304F0D6FE030023706D
:1023F0007B191B78032B09D00ADC002B02D0022B9F
:1024000002D005E0002304E0022302E0032300E001
:1024100001231800BD4606B0B0BD80B584B000AF42
:10242000786039607B68002B02D03B68002B01D1BB
:1024300001230FE03B681800FDF7F0FE02000E21BB
:102440007B181A807B181A8839687B681800FFF798
:10245000B0FF03001800BD4604B080BD104885469B
:10246000FFF764FE002103E00E4B5B58435004313C
:102470000D480E4B42189A42F6D30D4A02E0002353
:10248000136004320B4B9A42F9D30B4A02E000234B
:1024900013600432094B9A42F9D3FEF74DFAFEE776
:1024A000006000206C2F0610A0090020940B002073
:1024B00094010020A0090020C00000209401002009
:1024C000FEE780B582B000AFFB1D00221A7003202A
:1024D00000F00EF8031E03D0FB1D01221A7001E06C
:1024E000FFF7EAFAFB1D1B781800BD4602B080BD5D
:1024F00090B585B000AF78600F23FB1800221A70EA
:102500001D4B1B78002B2CD003F0D2FC04001A4B7F
:102510001B781900FA239800FDF792FE03001900BA
:102520002000FDF78DFE0300180000F044F9031EA3
:1025300012D17B68032B0AD8796801235B42002201
:10254000180000F013F90D4B7A681A600DE00F23A4
:10255000FB1801221A7008E00F23FB1801221A70E1
:1025600003E00F23FB1801221A700F23FB181B78BE
:102570001800BD4605B090BDA8090020A4090020A0
:1025800080B500AF054B1B781A00054B1B68D218AD
:10259000034B1A60C046BD4680BDC046A809002056
:1025A000E404002080B500AF024B1B681800BD4654
:1025B00080BDC046E404002080B500AF024B1B681C
:1025C0001800BD4680BDC046A409002080B584B077
:1025D00000AF7860FFF7E6FF0300BB607B68FB603D
:1025E000FB68013305D00A4B1B781A00FB689B1867
:1025F000FB60C046FFF7D6FF0200BB68D31AFA683B
:102600009A42F7D8C046C046BD4604B080BDC04619
:10261000A809002080B582B000AF0200FB1D1A702F
:10262000FB1D1B787F2B09D8FB1D1B781A001F236D
:102630001A40044B012191400A001A60C046BD4671
:1026400002B080BD00E100E090B583B000AF0200B1
:102650003960FB1D1A70FB1D1B787F2B28D82F4A71
:10266000FB1D1B785BB29B08C0339B009B58FA1D77
:102670001278110003220A40D200FF2191400A0083
:10268000D2431A4011003B689B01FF221A40FB1DF8
:102690001B78180003230340DB009A401F48FB1DF2
:1026A0001B785BB29B080A43C0339B001A5031E091
:1026B0001B4AFB1D1B7819000F230B40083B9B088E
:1026C00006339B00D31804331B68FA1D12781100DF
:1026D00003220A40D200FF2191400A00D2431A404F
:1026E00011003B689B01FF221A40FB1D1B7818005C
:1026F00003230340DB009A400948FB1D1B781C00A4
:102700000F232340083B9B080A4306339B00C31852
:1027100004331A60C046BD4603B090BD00E100E03E
:1027200000ED00E080B582B000AF78607B685A1E93
:1027300080235B049A4201D3012310E00A4B7A689C
:10274000013A5A6001235B4203211800FFF77CFF26
:10275000054B00229A60044B07221A6000231800E0
:10276000BD4602B080BDC04610E000E080B584B038
:1027700000AFB9607A600F217B18021C1A70BA682A
:102780007B181B785BB211001800FFF75DFFC04695
:10279000BD4604B080BD80B582B000AF0200FB1D15
:1027A0001A70FB1D1B785BB21800FFF733FFC046A1
:1027B000BD4602B080BD80B582B000AF78607B6856
:1027C0001800FFF7AFFF03001800BD4602B080BD40
:1027D000B0B586B000AFF860B9607A601D4B1B7869
:1027E000012B01D1022331E01A4B01221A70194B3F
:1027F00000225A6017257C19FA239B00180000F06C
:102800002BF8030023707B191B78002B18D1FB6871
:10281000002B06D17A68BB681100180000F056F84A
:1028200005E07A68BB681100180000F071F8172302
:10283000FC18FA239B00180000F00EF80300237028
:10284000044B00221A701723FB181B781800BD4692
:1028500006B0B0BDE804002080B584B000AF786059
:10286000FFF7A0FE0300FB600CE07B68013309D09A
:10287000FFF798FE0200FB68D31A7A689A4201D8E3
:1028800003231BE00F4B1B6901221340012BECD1EA
:102890000C4B1B690C2213400C2B0ED1094B9A6870
:1028A000094B5B681A43084B5A60064B1A69054B83
:1028B0000C210A431A61012300E000231800BD46E1
:1028C00004B080BD00100040E804002080B582B054
:1028D00000AF786039600C4B1A690B4B0F210A432B
:1028E0001A617B68094A944663449A08064B1204AD
:1028F000120C9A61044B3A681A64034B33221A6033
:10290000C046BD4602B080BD001000400000FCEF94
:1029100080B584B000AF786039603B68FB60174BCE
:102920001A69164B0F210A431A617B68144A9446B0
:1029300063449A08114B1204120C9A610F4AFB6807
:102940001B681364FB680433FB600C4AFB681B685C
:102950005364FB680433FB60084AFB681B6893649C
:10296000FB680433FB60054AFB681B68D364034BB8
:10297000CC221A60C046BD4604B080BD00100040A5
:102980000000FCEFB0B584B000AF78603960274B31
:102990001B78012B01D1022343E0244B01221A7042
:1029A000224B00225A607B681B68FF2B0BD100F082
:1029B0003FF80F23FC18FA239B001800FFF74CFF89
:1029C0000300237027E03B68012252421A607B68B3
:1029D0005B68BB6017E0BB68180000F039F80F2592
:1029E0007C19FA239B001800FFF736FF03002370C1
:1029F0007B191B78002B03D03B68BA681A600AE089
:102A0000BB680133BB607B685A687B689B68D318DE
:102A1000BA689A42DFD3054B00221A700F23FB18C5
:102A20001B781800BD4604B0B0BDC046E8040020C5
:102A300080B500AF054B1A69044B0F210A431A6198
:102A4000024B22221A60C046BD4680BD00100040E5
:102A500080B582B000AF7860094B1A69084B0F212E
:102A60000A431A617B68DB029A08054B1204120CB8
:102A70009A61034B11221A60C046BD4602B080BD68
:102A80000010004080B586B000AF78603960002348
:102A90007B6190E13B681B6801217A6991400A00E3
:102AA0001340FB60FB68002B00D181E13B685B6851
:102AB00003221340012B05D03B685B6803221340BF
:102AC000022B30D17B689B683B617B695B000322F2
:102AD0009A401300DA433B6913403B613B68DA6874
:102AE0007B695B009A4013003A6913433B617B6842
:102AF0003A699A607B685B683B6101227B699A4016
:102B00001300DA433B6913403B613B685B681B0978
:102B100001221A407B699A4013003A6913433B61D2
:102B20007B683A695A603B685B6803221340032B59
:102B300017D07B68DB683B617B695B0003229A40AE
:102B40001300DA433B6913403B613B689A687B6939
:102B50005B009A4013003A6913433B617B683A6912
:102B6000DA603B685B6803221340022B23D17B6948
:102B7000DA087B6808329200D3583B617B690722F0
:102B800013409B000F229A401300DA433B69134025
:102B90003B613B681A697B6907210B409B009A40A7
:102BA00013003A6913433B617B69DA087B6808329A
:102BB00092003969D1507B681B683B617B695B007F
:102BC00003229A401300DA433B6913403B613B68A0
:102BD0005B6803221A407B695B009A4013003A69E4
:102BE00013433B617B683A691A603B685A68C023AB
:102BF0009B02134000D1DBE03B685A688023DB0274
:102C0000134030D08023DB05DB683B617A6890237A
:102C1000DB059A4211D101227B699A401300DB4304
:102C20001A003B6913403B6101227B699A40130003
:102C30001A003B6913433B6111E001227B699A4012
:102C400013001B04DB431A003B6913403B61012264
:102C50007B699A4013001B043A6913433B6180234C
:102C6000DB053A69DA603B685A6880235B031340EE
:102C700030D08023DB051B693B617A689023DB053C
:102C80009A4211D101227B699A401300DB431A005A
:102C90003B6913403B6101227B699A4013001A0093
:102CA0003B6913433B6111E001227B699A401300A9
:102CB0001B04DB431A003B6913403B6101227B6923
:102CC0009A4013001B043A6913433B618023DB05E0
:102CD0003A691A613B685A688023DB03134030D09D
:102CE0008023DB055B693B617A689023DB059A42B0
:102CF00011D101227B699A401300DB431A003B6922
:102D000013403B6101227B699A4013001A003B6922
:102D100013433B6111E001227B699A4013001B04BD
:102D2000DB431A003B6913403B6101227B699A40F7
:102D300013001B043A6913433B618023DB053A69A6
:102D40005A613B685A6880235B02134030D080236D
:102D5000DB059B693B617A689023DB059A4211D1C0
:102D600001227B699A401300DB431A003B69134040
:102D70003B6101227B699A4013001A003B691343AF
:102D80003B6111E001227B699A4013001B04DB4385
:102D90001A003B6913403B6101227B699A40130092
:102DA0001B043A6913433B618023DB053A699A614E
:102DB0007B6901337B613B681A687B69DA40131ECB
:102DC00000D067E6C046C046BD4606B080BD80B5AF
:102DD00082B000AF786008001100BB1C021C1A8092
:102DE0007B1C0A1C1A707B1C1B78002B04D0BB1C9C
:102DF0001A887B689A6103E0BB1C1A887B689A6218
:102E0000C046BD4602B080BD80B582B000AF7860DC
:102E10007B68002B01D101238FE07B6841229B5C02
:102E2000DBB2002B07D17B684022002199547B68DC
:102E30001800FEF74BFE7B684122242199547B68E1
:102E40001B681A687B681B6801218A431A607B68CB
:102E50005A687B681B683B490A401A617B681B689B
:102E60009A687B681B6838490A409A607B68DB680F
:102E7000012B08D17B689A687B681B688021090256
:102E80000A439A6007E07B689A687B681B68842124
:102E900009020A439A607B68DB68022B09D17B68D0
:102EA0001B685A687B681B68802109010A435A60C5
:102EB00007E07B681B685A687B681B6823490A40E7
:102EC0005A607B681B685A687B681B6820490A4304
:102ED0005A607B681B68DA687B681B681A490A407D
:102EE000DA607B681A697B685B691A4311007B684A
:102EF0009B691A027B681B680A43DA607B68D969A0
:102F00007B681A6A7B681B680A431A607B681B68C7
:102F10001A687B681B6801210A431A607B680022DB
:102F20005A647B684122202199547B6800221A63ED
:102F30007B6842220021995400231800BD4602B04C
:102F400080BDC046FFFFFFF0FF7FFFFFFFF7FFFFE1
:102F50000080000280B582B000AF786039607B6885
:102F600041229B5CDBB2202B38D17B6840229B5CEA
:102F7000012B01D1022332E07B68402201219954C8
:102F80007B684122242199547B681B681A687B68FE
:102F90001B6801218A431A607B681B681A687B687A
:102FA0001B6811490A401A607B681B6819687B68B6
:102FB0001B683A680A431A607B681B681A687B685A
:102FC0001B6801210A431A607B6841222021995421
:102FD0007B68402200219954002300E0022318005E
:102FE000BD4602B080BDC046FFEFFFFF80B584B094
:102FF00000AF786039607B6841229B5CDBB2202B9C
:1030000039D17B6840229B5C012B01D1022333E044
:103010007B684022012199547B68412224219954E4
:103020007B681B681A687B681B6801218A431A60E9
:103030007B681B681B68FB60FB68114A1340FB60E0
:103040003B681B02FA681343FB607B681B68FA68E5
:103050001A607B681B681A687B681B6801210A4339
:103060001A607B684122202199547B68402200210C
:103070009954002300E002231800BD4604B080BD2F
:10308000FFF0FFFF80B584B000AF78600F23FB181E
:1030900000221A707B68002B45D07B681B79DBB25D
:1030A000002B03D17B681800FEF770FDFFF77AFA5A
:1030B0000300BB607B6802221A7111E07B681B6809
:1030C00001221A60FFF76EFA0200BB68D21AFA23D7
:1030D0009B009A4204D90F23FB1803221A7006E0C2
:1030E0007B681B681B6801221340012BE6D10F236C
:1030F000FB181B78002B0FD17B681B689A687B68D4
:103100001B68D02149030A439A607B6800229A60B9
:103110007B6801221A710AE07B6804229A607B684E
:1031200003221A7103E00F23FB1801221A700F23E8
:10313000FB181B781800BD4604B080BD80B586B072
:1031400000AF78607B68180000F068F803007B61CE
:103150007B681B681B683B617B681B685B68FB6066
:103160003A6980235B0313400FD0FA6880235B0326
:1031700013400AD07B689B6801221A437B689A60DF
:103180007B681B68802252039A603A6980231B0384
:1031900013400FD0FA6880231B0313400AD07B68CA
:1031A0009B6802221A437B689A607B681B688022B6
:1031B00012039A607B69242B0BD17B681B68164A2B
:1031C0009B58002B05D07B689B6808221A437B68BC
:1031D0009A607B689B68002B03D07B68180006F020
:1031E00049FC3A6980239B02134010D0FA6880237F
:1031F0009B0213400BD07B681B68802292029A606E
:103200007B6801221A717B68180006F027FCC04613
:10321000BD4606B080BDC046E80E000080B582B055
:1032200000AF78607B681B681B681B0A3F22134055
:103230001800BD4602B080BD80B584B000AF786094
:1032400039600F23FB1800221A707B68002B03D013
:103250007B68012B0ED01BE0134B196A124B3A68A6
:103260000A431A62104B5A6A3B68D9430E4B0A4014
:103270005A6212E00C4B996A0B4B3A680A439A6205
:10328000094BDA6A3B68D943074B0A40DA6204E02B
:103290000F23FB1801221A70C0460F23FB181B785E
:1032A0001800BD4604B080BD0000504880B584B011
:1032B00000AF786039600F23FB1800221A707B681A
:1032C000002B03D07B68012B08D00FE00D4B1A6A4E
:1032D0003B68D9430B4B0A401A620CE0094B9A6ACF
:1032E0003B68D943074B0A409A6204E00F23FB185E
:1032F00001221A70C0460F23FB181B781800BD4628
:1033000004B080BD0000504880B584B000AF786044
:1033100039600F23FB1800221A707B68002B03D042
:103320007B68012B08D00FE00D4B5A6A3B68D943EC
:103330000B4B0A405A620CE0094BDA6A3B68D943EE
:10334000074B0A40DA6204E00F23FB1801221A70CF
:10335000C0460F23FB181B781800BD4604B080BD83
:103360000000504880B582B000AF7860044B1B6805
:10337000034B7A681A60C046BD4602B080BDC046A5
:10338000C000002080B582B000AF7860074B5B685A
:10339000074A134019007B681B021B041A0C034BDD
:1033A0000A435A60C046BD4602B080BDC00000203E
:1033B000FF00FFFF80B582B000AF7860084B5B680C
:1033C000084A134019007B681A04FF231B041A40A3
:1033D000034B0A435A60C046BD4602B080BDC0469A
:1033E000C0000020FFFF00FF80B582B000AF786012
:1033F000064B5B681B02190A7B681A06034B0A43DB
:103400005A60C046BD4602B080BDC046C000002024
:1034100080B582B000AF7860074B9B68FF22934372
:1034200019007B68FF221A40034B0A439A60C0468A
:10343000BD4602B080BDC046C000002080B582B04D
:1034400000AF7860074B9B68074A134019007B6800
:103450001B021B041A0C034B0A439A60C046BD466C
:1034600002B080BDC0000020FF00FFFF80B582B029
:1034700000AF7860084B9B68084A134019007B68CE
:103480001A04FF231B041A40034B0A439A60C046E8
:10349000BD4602B080BDC046C0000020FFFF00FF57
:1034A00080B582B000AF7860064B9B681B02190A9A
:1034B0007B681A06034B0A439A60C046BD4602B0B9
:1034C00080BDC046C000002080B582B000AF7860EB
:1034D000074BDB68FF22934319007B68FF221A40E9
:1034E000034B0A43DA60C046BD4602B080BDC04609
:1034F000C000002080B582B000AF7860074BDB6869
:10350000074A134019007B681B021B041A0C034B6B
:103510000A43DA60C046BD4602B080BDC00000204C
:10352000FF00FFFF80B582B000AF7860084BDB681A
:10353000084A134019007B681A04FF231B041A4031
:10354000034B0A43DA60C046BD4602B080BDC046A8
:10355000C0000020FFFF00FF80B582B000AF7860A0
:10356000084BDB68084A134019007B681A06FC23E5
:103570009B051A40034B0A43DA60C046BD4602B0C1
:1035800080BDC046C0000020FFFFFFC080B582B0F4
:1035900000AF7860074B1B69FF22934319007B68DB
:1035A000FF221A40034B0A431A61C046BD4602B0CF
:1035B00080BDC046C000002080B500AF044B5A69F2
:1035C000034B04210A435A61C046BD4680BDC04634
:1035D000C000002080B500AF044B5A69034B802126
:1035E00009040A435A61C046BD4680BDC0000020A0
:1035F00080B500AF044B5A69034B802189050A430B
:103600005A61C046BD4680BDC000002080B500AFF5
:10361000044B5A69034B8021C9050A435A61C046CD
:10362000BD4680BDC000002080B582B000AF78608C
:10363000074B9B697F22934319007B687F221A40C6
:10364000034B0A439A61C046BD4602B080BDC046E6
:10365000C000002080B582B000AF78607B68DB6876
:10366000032293431A007B68DA60C046BD4602B06D
:1036700080BD80B582B000AF78607B68DB680322D4
:1036800093431A007B68DA60C046BD4602B080BD35
:1036900080B582B000AF78607B689B6A034A1A40AD
:1036A0007B689A62C046BD4602B080BDFFFFFFBF87
:1036B00090B58DB000AF7860144B7B61144B1B68E4
:1036C000144A93422AD1144B1B681B0A0F22134041
:1036D000FB62114B1B681B0B0F221340BB620E4B8E
:1036E0001B681B0C0F2213407B620B4B1B681B0DCE
:1036F000072213403B62084B1B681B0E0722134036
:10370000FB611B23FB1801221A7018E01005002032
:10371000F81E0010CCECBCFCE81E00100823FB6275
:103720000723BB6208237B621B217B1800221A70CF
:1037300003233B620323FB617B1801221A70FC4BBD
:1037400000221A717B68002B03D07B681800FEF7FB
:1037500039FAC023DB051800FFF77CFFC023DB0527
:103760001800FFF786FFF34B1800FFF791FFF24AAE
:103770009E239B00D3580F2293431A007B6A0F218C
:103780000B40ED491A439E239B00CA50EA4A9D23F1
:103790009B00D358F02293431A00BB6A1B01FF2100
:1037A0000B40E5491A439D239B00CA50E24A9D23E2
:1037B0009B00D3580F2293431A00FB6A0F210B4042
:1037C000DD491A439D239B00CA501B23FB181B781D
:1037D000002B1ED0D84A92239B00D3580722934334
:1037E0001A003B6A07210B40D3491A4392239B00DE
:1037F000CA50D14A92239B00D358382293431A00CF
:10380000FB69DB0038210B40CB491A4392239B0014
:10381000CA50C94AA4235B00D358FF229343C64928
:1038200055221A43A4235B00CA50C34AAA235B0053
:10383000D358FF229343C04966221A43AA235B0050
:10384000CA50BD4AB4235B00D358FF229343BA4900
:1038500055221A43B4235B00CA50B74AC4235B0005
:10386000D358FF229343B4491D221A43C4235B005B
:10387000CA50B14AC2235B00D358FF229343AE49DA
:1038800059221A43C2235B00CA50AB4AC6235B00CD
:10389000D358FF229343A84932221A43C6235B0020
:1038A000CA50A54AB6235B00D358A34901221A4344
:1038B000B6235B00CA50A04AD0239B00D358FF22F6
:1038C00093439D491F221A43D0239B00CA509A4A12
:1038D000D1239B00D358FF229343974909221A43CF
:1038E000D1239B00CA504020FFF74CFD3F20FFF73B
:1038F00061FD0920FFF778FD5A20FFF7B7FD322060
:10390000FFF7CEFD5A20FFF783FD3220FFF796FD2B
:103910001020FFF707FE1020FFF71EFE0420FFF720
:1039200035FE1420FFF7D0FD0520FFF7E3FDFFF77C
:1039300043FEFFF74FFEFFF75BFE0020FFF774FE2C
:1039400013203B1800221A703B181B783A18591C98
:1039500011701A007B699B1801221A703B181B78A2
:103960003A18591C11701A007B699B185E221A7054
:10397000714A9E239B00D1583B181B7804003A18CB
:10398000581C10701A007B699B18CAB21A7020006C
:103990003B181B783A18591C11701A007B699B1848
:1039A00001221A703B181B783A18591C11701A0022
:1039B0007B699B185D221A705F4A9D239B00D1583A
:1039C0003B181B7804003A18581C10701A007B69C9
:1039D0009B18CAB21A7020003B181B783A18591C61
:1039E00011701A007B699B1801221A703B181B7812
:1039F0003A18591C11701A007B699B1852221A70D0
:103A00004D4A92239B00D1583B181B7804003A186A
:103A1000581C10701A007B699B18CAB21A702000DB
:103A20003B181B783A18591C11701A007B699B18B7
:103A300001221A703B181B783A18591C11701A0091
:103A40007B699B1812221A703B4AA4235B00D15851
:103A50003B181B7804003A18581C10701A007B6938
:103A60009B18CAB21A7020003B181B783A18591CD0
:103A700011701A007B699B1801221A703B181B7881
:103A80003A18591C11701A007B699B1815221A707C
:103A9000294AAA235B00D1583B181B7804003A1826
:103AA000581C10701A007B699B18CAB21A7020004B
:103AB0003B181B783A18591C11701A007B699B1827
:103AC00001221A703B181B783A18591C11701A0001
:103AD0007B699B181A221A70174AB4235B00D158CD
:103AE0003B181B7804003A18581C10701A007B69A8
:103AF0009B18CAB21A7020003B181B783A18591C40
:103B000011701A007B699B1801221A703B181B78F0
:103B10003A18591C11701A007B699B1822221A70DE
:103B2000054AC4235B00D1583B181B78040005E00C
:103B3000C000002000180060001400603A18581CF3
:103B400010701A007B699B18CAB21A7020003B18CB
:103B50001B783A18591C11701A007B699B180122B6
:103B60001A703B181B783A18591C11701A007B699F
:103B70009B1821221A706D4AC2235B00D1583B1852
:103B80001B7804003A18581C10701A007B699B18A7
:103B9000CAB21A7020003B181B783A18591C1170D1
:103BA0001A007B699B1801221A703B181B783A187F
:103BB000591C11701A007B699B1823221A705B4AEA
:103BC000C6235B00D1583B181B7804003A18581CD8
:103BD00010701A007B699B18CAB21A7020003B183B
:103BE0001B783A18591C11701A007B699B18012226
:103BF0001A703B181B783A18591C11701A007B690F
:103C00009B181B221A70494AB6235B00D1583B18F7
:103C10001B7804003A18581C10701A007B699B1816
:103C2000CAB21A7020003B181B783A18591C117040
:103C30001A007B699B1801221A703B181B783A18EE
:103C4000591C11701A007B699B1890221A70374A10
:103C5000D0239B00D1583B181B7804003A18581CFD
:103C600010701A007B699B18CAB21A7020003B18AA
:103C70001B783A18591C11701A007B699B18012295
:103C80001A703B181B783A18591C11701A007B697E
:103C90009B1891221A70254AD1239B00D1583B18BA
:103CA0001B7804003A18581C10701A007B699B1886
:103CB000CAB21A703B191B783A19591C11701A00B4
:103CC0007B699B1800221A70194A1A4B1A60184A0D
:103CD000184B5A60184A174B9A60164B0022DA604C
:103CE000144B1B681800FFF73DFB104B01221A61B3
:103CF000FFF78CFCC023DB055B68FB60C023DB05A2
:103D0000FA685A600D4B5A6C0C4B01210A435A64F5
:103D10000A4B1A6C094B01210A431A64C023DB05C4
:103D20005B68FB60C046BD460DB090BD00140060EE
:103D300010050020000500200C0500200018006080
:103D400080B586B000AF244AA9239B00D358FB60FE
:103D5000214AAA239B00D358BB60BB681B021B04EB
:103D60001A0CFB68FF210B4013433B611A4AAB233B
:103D70009B00D3587B603B69002B02D07B680B2BE8
:103D800002D97F237B6120E07A6813005B009B18D7
:103D90005B00773B7B6105E07B6906337B613B69B8
:103DA0005B083B613B691E2BF6D83A6913005B0048
:103DB0009B189B009B185B019B18084A9446634420
:103DC0009B0A1A007B699B187B617B695BB21800B8
:103DD000BD4606B080BDC04600140060A04600008D
:103DE00080B582B000AFC023DB05DB697B60C023F8
:103DF000DB055B683B60C023DB053A685A6000F076
:103E0000D3FC7A683B681343180008F025F900F0EA
:103E1000C5FCC023DB055B683B60C046BD4602B005
:103E200080BD80B500AF07F05DFFC046BD4680BDD8
:103E300080B582B000AF0200FB1D1A70FB1D1B781D
:103E40007F2B09D8FB1D1B781A001F231A40044B37
:103E5000012191400A001A60C046BD4602B080BDF3
:103E600000E100E080B582B000AF78607B68DB687D
:103E70000322934302221A437B68DA60C046BD46A0
:103E800002B080BD80B582B000AF78607B68DB682F
:103E9000032293431A007B68DA60C046BD4602B035
:103EA00080BD80B582B000AF78607B68DB6803229C
:103EB00093431A007B68DA60C046BD4602B080BDFD
:103EC00080B582B000AF786039607B683A681A616B
:103ED000C046BD4602B080BD80B582B000AF7860FC
:103EE0007B689B6A8022D2051A437B689A62C0462F
:103EF000BD4602B080BD000080B582B000AF7860E2
:103F00007B689B6A034A1A407B689A62C046BD463A
:103F100002B080BDFFFFFFBF80B582B000AF786008
:103F20007B681B6B8022D2051A437B681A63C046EC
:103F3000BD4602B080BD000080B582B000AF7860A1
:103F40007B681B6B034A1A407B681A63C046BD46F8
:103F500002B080BDFFFFFFBF80B582B000AF7860C8
:103F60000A00FB1C1A70FB1C1A787B689A60C0461A
:103F7000BD4602B080BD80B582B000AF78603960C8
:103F80007B683A685A62C046BD4602B080BD80B5C3
:103F900082B000AF786039607B683A68DA62C04608
:103FA000BD4602B080BD80B582B000AF78607B684E
:103FB0001B691800BD4602B080BD80B582B000AF5D
:103FC00078607B689B6A802292051A437B689A62BC
:103FD000C046BD4602B080BD80B582B000AF7860FB
:103FE0000A00FB1C1A70084B9B6A072293431900B6
:103FF000FB1C1B7807221A40034B0A439A62C046F7
:10400000BD4602B080BDC0460018006080B582B0D9
:1040100000AF78607B689B6C01221A437B689A64CE
:10402000C046BD4602B080BD80B582B000AF7860AA
:104030007B68DB6C01221A437B68DA64C046BD46AC
:1040400002B080BD80B582B000AF78607B68DB6C69
:1040500001221340012B01D1012300E000231800AD
:10406000BD4602B080BD80B582B000AF78603960D7
:104070007B683A685A60C046BD4602B080BD80B5D4
:1040800082B000AF78607B6800229A60C046BD466F
:1040900002B080BD80B582B000AF78607B689B685D
:1040A0001800BD4602B080BD80B582B000AF786018
:1040B0007B68DB681800BD4602B080BD80B582B069
:1040C00000AF78607B681B6901221A437B681A6124
:1040D000C046BD4602B080BD80B582B000AF7860FA
:1040E0007B681B6901221340012B01D1012300E0F1
:1040F00000231800BD4602B080BD0000F0B583B0BB
:1041000000AF7860714B1800FFF78EFF6F4B1800FF
:10411000FFF77CFF1720FFF78BFE1420FFF788FEC8
:104120007B685B685A1E9341DBB21A00684B1A70B9
:10413000674B1B78002B03D17B689B78002B02D048
:1041400000F00AFC10E0624BC82252031A62604B76
:10415000C8225203DA615E4B5E4A9A615C4B5E4A4A
:104160001A615B4B5D4A5A617B685B68002B08D122
:10417000A023DB05180000F023FB0200544B5A601B
:104180001DE07B685B681B030A211800FCF758F8E8
:1041900003001A004E4B5A604D4B5E68504B18009E
:1041A00000F00EFB03009E4202D2494B5A6804E025
:1041B0004B4B180000F004FB0200454B5A60444B87
:1041C00064229A60424B00221A737B681B881A0093
:1041D0003F4B9A663E4B9B6E9AB23D4B9B691900D2
:1041E000100000F02DFD3A4B8422002199543849EB
:1041F000002200230A674B67344B1800FFF7D3FEF9
:104200000200334B80215A503149002200238A6733
:10421000CB672F49002200238A62CB622C4B3422C9
:10422000002199542A4B5868294B9B6919002D4B42
:104230001A00FBF745FF0200254B1A63244B19783F
:10424000234B94229954224B8C2200219950204BCD
:104250009022012199541E4B9322002199541C4B0A
:104260009122002199541A4B922200219954184B03
:10427000612200219954164B622200219954144B5B
:104280006322002199541249002200238A65CB65DC
:104290000F4B154A9A640E4B00225A6500F0A6FA9D
:1042A00002000B000A4949680C0000210D00121998
:1042B0006B410E49080000F01DFD054B012118005F
:1042C00000F0FAFBC046BD4603B0F0BD0018006028
:1042D00038050020C2F528008D5B0000ECEB65017D
:1042E000FFEFFFFF260300009D4C0410780500201F
:1042F000B0B590B000AF0F23FB1800221A70EFF397
:1043000010837B627B6ABB6372B6C0469E4B6122A0
:104310009B5C002B0FD09C4B9C6DDD6D00F066FA12
:1043200002000B00AB4202D805D1A24203D9964B42
:10433000612200219954BB6B3B623B6A83F3108876
:10434000C0466EE0904B9122995C8F4B92229A5C12
:104350002B2308201B18DB198A1A1A708A4B8C220F
:104360009B583A181100180000F09AFE0200864B84
:104370008C215A50BB68FB6310E0FB6B1B69BB626E
:10438000FB6B00221A73FB6B9B68002B04D0FB6B4A
:104390009B68FA6B10009847BB6AFB63FB6B002BB2
:1043A000EBD1794B8C229B580F243A19110018003D
:1043B00000F066FD0200744B8C215A503B191B78AB
:1043C000012B21D1EFF31083FB61FB69FB6272B615
:1043D000C0466D4B91229B5C01336B4A9221525C2B
:1043E000934203D1684B91229B5C04E0664B91227F
:1043F0009B5C0133DBB2644A91215354FB6ABB617D
:10440000BB6983F31088C0465F4B92229A5C2B23D2
:1044100008215B18DB191B78D318D9B25A4B9222AA
:104420009954594B91229A5C574B92215B5C9A426A
:104430000AD3554B91229A5C534B92215B5CD31A61
:104440005A1E9341DBB20CE04F4B91229B5C19004A
:104450004D4B92229B5CCB1A0133FF335A1E934182
:10446000DBB2002B00D06DE7474B1B7B002B6AD0E3
:10447000464B1800FFF730FE031E00D17FE0424B91
:1044800000221A73404B94229B5C002B09D13E4BB7
:1044900093229B5C002B04D03B4B93220021995428
:1044A00034E000F047FE384B8C229B580F243A1919
:1044B0001100180000F0E4FC0200334B8C215A502C
:1044C0003B191B78012B21D1EFF310837B617B69B2
:1044D0007B6372B6C0462C4B91229B5C01332A4A07
:1044E0009221525C934203D1274B91229B5C04E0C2
:1044F000254B91229B5C0133DBB2234A912153541B
:104500007B6B3B613B6983F31088C0460F23FA182D
:104510001F4B1100180000F0C1FE1E4B180000F0E8
:1045200091F900F063F902000B00174949683960FE
:10453000002179603868796812184B4115490800E4
:1045400000F0D8FB1BE0104B1B78002B17D000F0BD
:104550004DF90D4B9A6ADB6AFA246403002512199F
:104560006B41994203D80AD1904200D807E0094B29
:10457000180000F067F9074B180000F08FFBC046E9
:10458000BD4610B0B0BDC046380500200010006028
:10459000900500207805002080B582B000AF7860DB
:1045A000C023DB055B697A681100180000F0E8FFA2
:1045B00002000B0010001900BD4602B080BD0000D3
:1045C000F0B585B000AF786008001100FB1C021C3C
:1045D0001A70BB1C0A1C1A700F26BB1900221A7015
:1045E000FB1C1B785A1E9341D9B21B4B6422995471
:1045F000BB1C1B785A1E9341D9B2174B60229954A9
:10460000154B9A6ADB6A1449886AC96A7968091A7B
:104610000C0000210D0012196B410F498A65CB6512
:104620000D4B6122002199540B4B632200219954B8
:10463000094B622201219954BA19084B1100180044
:1046400000F02CFE012000F0D3FCBB191B781800F1
:10465000BD4605B0F0BDC0463805002090050020DD
:10466000B0B588B000AFC023DB051800FFF70AFC27
:10467000C023DB051800FFF714FC314B1800FFF7CF
:104680003BFC304B6122002199542E4B62220021C9
:1046900099542C4B632200219954EFF31083BB6093
:1046A000BB68BB6172B6C046264B9C6DDD6D00F0E9
:1046B0009DF802000B00A41A9D4122002B00214905
:1046C0008420095C39600021796038687968121AA1
:1046D0008B413A617B61BB69FB60FB6883F31088A7
:1046E000C0467B69002B0CDC7B69002B02D13B6947
:1046F000002B06D1172308229B18DB1901221A7000
:1047000015E07B69002B0CDC7B69002B02D13B6937
:104710000E2B06D8172308229B18DB1902221A70C9
:1047200005E0172308229B18DB1900221A701723B3
:1047300008229B18DB191B781800BD4608B0B0BDD5
:10474000001800603805002080B584B000AFEFF39A
:1047500010833B603B68FB6072B6C0460E4B18008E
:10476000FFF721FC0300BB60BB689A1CC023DB057C
:1047700011001800FFF7A4FBC023DB051800FFF7AA
:1047800071FBFB687B607B6883F31088C046C04682
:10479000BD4604B080BDC0460018006080B500AFC3
:1047A000C046BD4680BD000080B500AF034B63220C
:1047B00000219954C046BD4680BDC0463805002042
:1047C00080B582B000AF7860064BDB691900064AFD
:1047D0007B681800FBF774FC03001800BD4602B0AC
:1047E00080BDC046380500203506000080B582B087
:1047F00000AF3A1D054B1100180000F0D9FA020075
:104800000B0010001900BD4602B080BD3805002025
:1048100090B587B000AFF8603A607B603A687B681B
:10482000F968080000F066FA020017243B191A70B4
:10483000012000F0DDFB3B191B781800BD4607B0D6
:1048400090BD000090B589B000AF7860284B8C22F5
:104850009B587A681100180000F0F6FB0300FB611A
:104860000F217B1800221A707B6800221A73204BDC
:104870008C229B58FA699A4231D00C007A18FB6955
:104880001100180000F0FCFA0200194B8C215A505C
:104890003B191B78002B26D0EFF310837B617B69DB
:1048A000BB6172B6C046124B91229B5C0133104A29
:1048B0009221525C934203D10D4B91229B5C04E008
:1048C0000B4B91229B5C0133DBB2094A912153547B
:1048D000BB693B613B6983F31088C04603E0044B2E
:1048E0008C21FA695A50C046BD4609B090BDC046F9
:1048F0003805002080B582B000AF00237B607B6864
:10490000134B1800FFF718FB124B91229B5C0133ED
:10491000104A9221525C934203D10E4B91229B5C30
:1049200004E00C4B91229B5C0133DBB2094A9121DC
:104930005354074B1800FFF777FB054B1800FFF7A0
:1049400081FB03007B60C046BD4602B080BDC0460F
:10495000001800603805002080B500AFC0460B4B42
:104960001800FFF7B9FB031EF9D0084B17211800F8
:10497000FFF779FB064B180000F01EF8054BDA69CB
:10498000044B1A62C046BD4680BDC04600100060A0
:10499000480500203805002080B500AF054B180001
:1049A000FFF78CFB034B1800FFF769FBC046BD46C1
:1049B00080BDC0460010006080B582B000AF786056
:1049C000FFF7EAFFC046074B1800FFF785FB031E01
:1049D000F9D07B68180000F007F8C046BD4602B069
:1049E00080BDC0460010006080B58AB000AF78601E
:1049F0002E4B1800FFF74EFB03007B6205E02B4BAC
:104A00001800FFF747FB03007B62284B1800FFF7F5
:104A100041FB02007B6A9A42F1D17B6A002BEED007
:104A2000234BFB617B6A1B12BB617B6AFF22134035
:104A30007B61FB69BA695A437B69F9694B431B1275
:104A4000D31810335A117B68DA607A6A7B681A606F
:104A5000184B3B61154B1800FFF726FB03003B6228
:104A600005E0124B1800FFF71FFB03003B620F4BE2
:104A70001800FFF719FB02003B6A9A42F1D13B6A2A
:104A8000002BEED03B6A9B11FB60FB683A695343F5
:104A9000BB60BB6880331A127B689A603A6A7B6895
:104AA0005A60C046BD460AB080BDC04600100060D6
:104AB000F6BC08005307000090B585B000AF7860E1
:104AC0000A00FB1C1A70384B9B7BDBB2002B00DA10
:104AD0000733DB10DAB20F243B1901321A707B68FE
:104AE0009B691900314B1A001B20FBF7E9FA020001
:104AF0002D4BD2B25A712C4B9B79DBB2180000F0CF
:104B00006DF80300D9B27B683D229954264B1B7A7D
:104B1000DBB21A003B191B78D318180000F05EF8BE
:104B20000300D9B27B68382299541F4B5B7ADBB201
:104B30001A003B191B78D318180000F04FF8030037
:104B4000D9B27B6839229954174B9B7ADBB2180093
:104B500000F044F80300D9B27B683A229954124B12
:104B6000DB7ADBB2180000F039F80300D9B27B68B9
:104B70003B229954FB1C1B78002B10D00A4B1B7A4C
:104B8000DBB21A003B191B78D318180000F010F89C
:104B90000300DBB21B33D9B27B683C229954C04678
:104BA000BD4605B090BDC046C000002026030000F1
:104BB00080B584B000AF78607B6868225343FB60A7
:104BC0007B68DB225343BB60FB681A0ABB681B0C83
:104BD000D3181800BD4604B080BD0000B0B588B041
:104BE00000AFF86015494969396000217960F968BA
:104BF0000A0000210B0038687968FBF7E1FC02002D
:104C00000B001000190002000B0092185B411218F3
:104C10004B41BA61FB61BA69FB698020C004002185
:104C200012184B415901D40E0C43DD0E23007B6159
:104C30007B691800BD4608B0B0BDC04638050020ED
:104C400080B584B000AF02003960BB1D1A80BB1D67
:104C50001B8839680E4A1800FBF732FA0300FB6024
:104C6000FA6880235B019A4201DB0A4BFB60FB6818
:104C70000F2B01DC1023FB60FB681B11DBB2064A23
:104C800019001000FFF768F9C046BD4604B080BDAA
:104C900026030000FF0F000000180060B0B582B0CE
:104CA00000AF7860114B1B7B01225340DBB2002B1D
:104CB00008D00E4B1B78002B01D0FFF76DFE0B4B7D
:104CC00001221A73FFF792FD02000B000749896861
:104CD0000C0000210D0012196B410549080000F07D
:104CE00009F8C046BD4602B0B0BDC0463805002038
:104CF0007805002090B589B000AFF8603A607B601D
:104D00001323FB1800221A70FB681B7B002B01D0B9
:104D1000012347E0F9683A687B680A604B60FB68EA
:104D200001221A73214B8C229B58FA68110018003B
:104D300000F02EF90200FB68934230D113243A1997
:104D4000FB681100180000F09BF80200174B8C2143
:104D50005A503B191B78002B21D0EFF31083BB6115
:104D6000BB69FB6172B6C046104B91229B5C01335C
:104D70000E4A9221525C934203D10C4B91229B5CD0
:104D800004E00A4B91229B5C0133DBB2074A91217C
:104D90005354FB697B617B6983F31088C0461323FE
:104DA000FB181B781800BD4609B090BD38050020DF
:104DB000B0B58AB000AFF860B960EFF310837B61E3
:104DC0007B69FB6172B6C046FB681A6F5B6F3A6223
:104DD0007B62294B1800FFF7E6F80200BB681A60F7
:104DE000BB681A68FB6880215B58D31ABB61FB68FB
:104DF000DB691900214ABB691800FBF761F9030060
:104E00003B6000237B603A6A7B6A386879681218D5
:104E10004B413A627B62FB689A6FDB6F796A994219
:104E200005D3796A994215D1396A914212D2FB6849
:104E3000DB691900114A01235B421800FBF740F9B6
:104E400003001C0000231D003A6A7B6A12196B41A3
:104E50003A627B62F9683A6A7B6A8A67CB67FB6968
:104E60003B613B6983F31088C0463A6A7B6A100055
:104E70001900BD460AB0B0BD00180060350600003C
:104E8000B0B58AB000AF786039607B687B627B68C0
:104E90003B623B6800221A7033E07B6A1B7B002B6D
:104EA0002CD0EFF31083FB60FB68FB6172B6C04649
:104EB0007B6A1C685D68FFF799FC02000B00A41A6E
:104EC0009D4122002B003A617B617B69002B05DC50
:104ED0007B69002B08D13B69002B05D03B69012180
:104EE000180000F01DF802E03B6801221A70FB690F
:104EF000BB60BB6883F31088C04605E07B6A1B6912
:104F00007B627B6A002BC8D13B681B78002B01D0E9
:104F10003B6A00E07B6A1800BD460AB0B0BD0000E5
:104F200080B584B000AF78600A00FB1C1A70154B86
:104F30009B691900144A7B681800FBF7C1F803004D
:104F40007B607B68202B00D220237B600F4B1800F6
:104F5000FFF729F80300FB607A68FB68D318083371
:104F60000A4A19001000FFF712F8084B1800FFF763
:104F700024F8064B1800FEF7CFFFFB681800BD466B
:104F800004B080BD38050020260300000018006032
:104F900080B586B000AF786039607B687B610023A4
:104FA0003B617B68FB6004E07B693B617B691B695B
:104FB0007B617B69002B0AD07B691A685B68396862
:104FC000086849689942EFD801D19042ECD83B6813
:104FD0007A691A613B69002B02D13B68FB6002E0F1
:104FE0003B693A681A61FB681800BD4606B080BD8F
:104FF00080B582B000AF0200FB1D1A70FB1D1B784C
:10500000002B10D00E4B90229B5C01225340DBB250
:10501000002B10D00B4B1800FFF740FE084B9022DE
:105020000121995407E0074B1800FFF70BFC044BD4
:10503000902200219954C046BD4602B080BDC046B2
:10504000380500207805002080B586B000AF786074
:1050500039607B687B6100233B617B68FB6004E017
:105060007B693B617B691B697B617B69002B03D09A
:105070007A693B689A42F3D17B69002B0BD07A693D
:105080007B689A4203D17B691B69FB6003E07B6903
:105090001A693B691A61FB681800BD4606B080BDFD
:1050A000B0B588B000AF786039607B68FB610023E1
:1050B000BB617B687B613B687A681A6000233B6157
:1050C00021E0FB691B7B002B15D0FB691C685D6828
:1050D000FFF78CFB02000B00A41A9D4122002B005D
:1050E000BA60FB60FB68002B11DCFB68002B02D16F
:1050F000BB68052B0BD8FB69BB61FB691B69FB61B6
:105100003B6901333B61FB69002BDAD100E0C0460B
:105110003B69002B05D0BB6900221A61FB697B61EA
:1051200002E03B6800221A607B691800BD4608B0A7
:10513000B0BD000080B590B000AF284B1B78002BAD
:1051400037D03B001800FFF74FFC244B9B6E9AB200
:105150003B009B6819001000FFF772FDEFF310830E
:105160003B633B6BBB6372B6C0461C4B34220121D0
:1051700099543B005A68194B5A613B009A68174B87
:105180009A613B001A68154B1A613B00DA68134BB1
:10519000DA61124B180000F023F8BB6B7B637B6B6A
:1051A00083F31088C0460D4B00211800FFF784FCE4
:1051B00010E0EFF31083BB62BB6AFB6372B6C046BC
:1051C000064B180000F00CF8FB6BFB62FB6A83F3E4
:1051D0001088C046C046BD4610B080BD38050020CE
:1051E000B0B588B000AF78612A4B1800FEF7DBFE3F
:1051F0000300FB617B691B6ABB617B699C6ADD6A9A
:105200007B6980229B58FA69D31A234AB96918002E
:10521000FAF756FF0300BB600023FB60BA68FB6827
:1052200012196B4179690A674B677B691B78002B00
:105230001DD17B6980229B58FA69D21A7B691B6B4E
:105240009A4214D2144AB96901235B421800FAF752
:1052500037FF01007B691A6F5B6F3960002179604D
:105260003868796812184B4179690A674B677B691E
:105270008021FA695A507B691A6F5B6F79698A627B
:10528000CB627B69DA697B691A62C046BD4608B0A9
:10529000B0BDC0460018006035060000B0B58AB049
:1052A00000AF786039603B6800221A707B689B7A97
:1052B000002B00D170E03A4B9A6ADB6A38494968A2
:1052C0000C0000210D0012196B413A627B62EFF372
:1052D0001083FB60FB68FB6172B6C046FFF786FA7D
:1052E00002000B003A617B617B681A685B68386A70
:1052F000796AC824A402002500196941994212D88C
:1053000001D190420FD83A6A7B6AB920400000214F
:1053100012184B417969994205D87969994235D17A
:105320003969914232D97B681A685B684C204042E7
:10533000C117801859413A697B690A24002512195E
:105340006B41994202D81AD1904218D97B681A68E9
:105350005B6810007B68197B7B681B7A1A0000F081
:1053600021F803001A003B681A707B6800229A72C9
:105370007B6801225A727B680122DA7206E0084BD0
:105380006222002199543B6801221A70FB69BB60BC
:10539000BB6883F31088C046C046BD460AB0B0BDA6
:1053A0003805002080B58AB000AF78600800110091
:1053B000FB1C021C1A70BB1C0A1C1A70FB1C1B78FD
:1053C000002B15D0BB1C1B78002B08D0674B382254
:1053D0009B5C3B62654B3C229B5CFB611DE0634B2D
:1053E00039229B5C3B62614B3C229B5CFB6114E07D
:1053F000BB1C1B78002B08D05C4B3A229B5C3B62A9
:105400005A4B3C229B5CFB6107E0584B3B229B5C68
:105410003B62564B3C229B5CFB610C23FA18534BBE
:1054200011001800FFF7C4FC02000B007B689B1AF8
:105430007B614E4B9B6919004D4A7B691800FAF756
:105440003FFE03003B61494B9A6EFB69D318C8339A
:105450007A699A422FD9474B5B79DBB21A003B69D4
:105460009A1A3B6AD31A7B62FA687B6AD318424A5B
:1054700019001000FEF77FFD3F4B00211800FEF7DA
:10548000ABFDC023DB051800FEF7FCFCC023DB05E9
:105490001800FEF706FD384B1800FEF71DFD364BD1
:1054A0001800FEF78AFD334B5B79DBB21A003B6ACA
:1054B0009B183B6221E02D4B3D229B5C1A003B690F
:1054C0009A1A3B6AD31A7B62FA687B6AD218C023A5
:1054D000DB0511001800FEF7F3FC274B1800FEF760
:1054E0000BFDC023DB051800FEF7BCFC1F4B3D2263
:1054F0009B5C1A003B6A9B183B62FA683B69D218B6
:105500001A4B88215A507A6A3B6AD2183B6A053393
:105510009A4212D2C023DB051800FEF7B3FCC02369
:10552000DB051800FEF7BDFC134B1800FEF7E4FC8A
:105530001B23FB1801221A7010E00C4BDB691900C9
:105540000E4A3B6A1800FAF7BBFD0300D9B2074BBD
:10555000842299541B23FB1800221A701B23FB186A
:105560001B781800BD460AB080BDC0463805002033
:1055700026030000C000002000180060350600006F
:10558000B0B584B000AF786039600823FA18124BC8
:1055900011001800FFF70CFC02000B0039680A60CC
:1055A0004B60BA687B68D01A0B4BDB6919000B4B58
:1055B0001A00FAF785FD0300FB603B681A685B6818
:1055C000F9680C0000210D00121BAB4110001900FE
:1055D000BD4604B0B0BDC046380500203506000009
:1055E00080B500AFC046BD4680BD80B500AFFFF7B7
:1055F00081F9FFF7F5FFC046BD4680BD80B582B09A
:1056000000AF00237B607B68C023DB055A6FC0239B
:10561000DB0501210A435A67C023DB055B6F7B6012
:10562000C046BD4602B080BD80B582B000AF786094
:10563000084B9A6A7B68D943064B0A409A62054B2D
:10564000DA6A7B68D943034B0A40DA62C046BD463A
:1056500002B080BD0000504880B500AF044B1A680E
:10566000034B802149020A431A60C046BD4680BDF3
:105670000000404880B500AF044B1A68034B044952
:105680000A401A60C046BD4680BDC0460000404882
:10569000FFFFFEFF80B500AF074B1A6880239B0217
:1056A0001A4080239B029A4201D1012300E000238B
:1056B0001800BD4680BDC0460000404880B582B09D
:1056C00000AF78600B4A9823D3580B4A1A407B6886
:1056D0001B020849134398228B50064A9823D3583B
:1056E00004498022134398228B50C046BD4602B025
:1056F00080BDC04600004048FFC0FFFF80B582B0BB
:1057000000AF7860074A9823D358702293431A0059
:1057100004497B68134398228B50C046BD4602B0B3
:1057200080BDC0460000404880B500AF074B9A6876
:10573000064B04218A439A60044B9A68034B02216A
:105740008A439A60C046BD4680BDC04600004048BE
:1057500080B500AF074B9A68064B02210A439A6056
:10576000044B9A68034B04210A439A60C046BD4625
:1057700080BDC0460000404880B500AF074B1A68A6
:105780008023DB001A408023DB009A4201D10123F1
:1057900000E000231800BD4680BDC0460000404820
:1057A00080B582B000AFC0460F4B1A6880239B02C1
:1057B0001340F9D00C4B9A680B4B02210A439A60B4
:1057C00000237B6003E0C0467B6801337B607B681D
:1057D000052BF8DD044B9A68034B04210A439A60B9
:1057E000C046BD4602B080BD0000404880B582B0D2
:1057F00000AF7860064B9B68064A13401900044BC3
:105800007A680A439A60C046BD4602B080BDC04671
:1058100000004048FF7FFEFF80B500AF044B1A68D0
:10582000034B10210A431A60C046BD4680BDC046E6
:105830000000404880B500AF044B1A68034B1021AC
:105840008A431A60C046BD4680BDC046000040483D
:1058500080B500AF054B1B6820221340202B01D1DF
:10586000012300E000231800BD4680BD0000404831
:1058700080B500AF044B1A68034B40210A431A60FD
:10588000C046BD4680BDC0460000404880B500AF60
:10589000044B1A68034B40218A431A60C046BD4638
:1058A00080BDC0460000404880B500AF054B1B6876
:1058B00040221340402B01D1012300E000231800B7
:1058C000BD4680BD0000404880B582B000AF786022
:1058D000064BDB68602293431900044B7A680A4345
:1058E000DA60C046BD4602B080BDC04600004048F8
:1058F00080B500AF044B1A68034B04210A431A60B9
:10590000C046BD4680BDC0460000404880B500AFDF
:10591000044B1A68034B04218A431A60C046BD46F3
:1059200080BDC0460000404880B500AF054B1B68F5
:1059300008221340082B01D1012300E000231800A6
:10594000BD4680BD0000404880B582B000AF7860A1
:105950003960074B9B689B0199097A683B681A4339
:10596000034B0A439A60C046BD4602B080BDC046A4
:105970000000404880B500AF044B1A68034B8021FB
:1059800089010A431A60C046BD4680BD00004048F8
:1059900080B500AF044B1A68034B04490A401A60F3
:1059A000C046BD4680BDC04600004048FFDFFFFF47
:1059B00080B500AF074B1A688023DB011A408023B3
:1059C000DB019A4201D1012300E000231800BD460B
:1059D00080BDC0460000404880B582B000AF78600E
:1059E000064B9B68E02293431900044B7A680A43F4
:1059F0009A60C046BD4602B080BDC0460000404827
:105A000080B584B000AF7860074B196D064B7A689B
:105A10000A431A65044B1B6D7A681340FB60FB68F0
:105A2000C046BD4604B080BD0000404880B584B08B
:105A300000AF78607B68002B01D1012340E17B68D7
:105A40001B681022134033D07B689B68002B02D167
:105A5000FFF76AFE01E0FFF77BFE7B689B68042B83
:105A600013D1FCF79FFD0300FB6008E0FCF79AFDF3
:105A70000200FB68D31A642B01D9032320E1FFF74E
:105A80007BFE0300012BF1D012E0FCF78BFD03003D
:105A9000FB6008E0FCF786FD0200FB68D31A642B6C
:105AA00001D903230CE1FFF767FE0300012BF1D1BD
:105AB0007B681B680122134039D00420FFF7FEFDEC
:105AC0003020FFF71BFE7B685A6880235B029A42F6
:105AD00002D1FFF7C1FD01E0FFF7CCFD7B685B68F9
